6110J301781678CAPPOUCLA                          201610262016102801082445190100023187VEF000100000ASEMANADE.RECCASCAPPOUCLA                                                                                                                                                                                                                                                                                                                                                                                          
6210J301781678V00430240       001010824575802000019170000000000155332010824500AUTORIZADO                                                                                                                                                                                                                                                                                                                                                                                                                            
6220J301781678V00430240       GOMEZ DE FREITEZ     ELENA J.                                                                                                                                                                                                                                                                                                                                                                                                                                                         
6210J301781678V00443869       001010824575702000020420000000000404222010824500AUTORIZADO                                                                                                                                                                                                                                                                                                                                                                                                                            
6220J301781678V00443869       ROJAS                RAFAEL ANTENOR                                                                                                                                                                                                                                                                                                                                                                                                                                                   
6210J301781678V00770342       001010824575002000021580000000001034562010824500AUTORIZADO                                                                                                                                                                                                                                                                                                                                                                                                                            
6220J301781678V00770342       MARTINEZ             SIXTO A.                                                                                                                                                                                                                                                                                                                                                                                                                                                         
6210J301781678V01112379       001010824575202000023440000000001154922010824500AUTORIZADO                                                                                                                                                                                                                                                                                                                                                                                                                            
6220J301781678V01112379       SANCHEZ              JUAN DE JESUS                                                                                                                                                                                                                                                                                                                                                                                                                                                    
6210J301781678V01239070       001010824575702000025570000000000160832010824500AUTORIZADO                                                                                                                                                                                                                                                                                                                                                                                                                            
6220J301781678V01239070       GUEVARA              JOSE BAUDILIO                                                                                                                                                                                                                                                                                                                                                                                                                                                    
6210J301781678V01257983       001010824575202000027780000000000364552010824500AUTORIZADO                                                                                                                                                                                                                                                                                                                                                                                                                            
6220J301781678V01257983       ARRIETA              JOSE MANUEL                                                                                                                                                                                                                                                                                                                                                                                                                                                      
6210J301781678V01258658       001010824575902000028160000000000214442010824500AUTORIZADO                                                                                                                                                                                                                                                                                                                                                                                                                            
6220J301781678V01258658       BETANCOURT           JUAN BAUTISTA                                                                                                                                                                                                                                                                                                                                                                                                                                                    
6210J301781678V01261562       001010824575302000028670000000000566352010824500AUTORIZADO                                                                                                                                                                                                                                                                                                                                                                                                                            
6220J301781678V01261562       CANELON G.           MARIA DE JESUS                                                                                                                                                                                                                                                                                                                                                                                                                                                   
6210J301781678V01263302       001010824575602000028910000000000214442010824500AUTORIZADO                                                                                                                                                                                                                                                                                                                                                                                                                            
6220J301781678V01263302       SEGURA B.            FRANCISCA                                                                                                                                                                                                                                                                                                                                                                                                                                                        
6210J301781678V01265436       001010824575602000029720000000000321662010824500AUTORIZADO                                                                                                                                                                                                                                                                                                                                                                                                                            
6220J301781678V01265436       CHIRINOS S.          DOMINGO A.                                                                                                                                                                                                                                                                                                                                                                                                                                                       
6210J301781678V01277938       001010824575202000031540000000000214442010824500AUTORIZADO                                                                                                                                                                                                                                                                                                                                                                                                                            
6220J301781678V01277938       GARCIA               JOSE EDUARDO                                                                                                                                                                                                                                                                                                                                                                                                                                                     
6210J301781678V01278407       001010824575302000031620000000000229452010824500AUTORIZADO                                                                                                                                                                                                                                                                                                                                                                                                                            
6220J301781678V01278407       NIEVES DE B.         CARMEN G.                                                                                                                                                                                                                                                                                                                                                                                                                                                        
6210J301781678V01318484       001010824575602000031970000000000289492010824500AUTORIZADO                                                                                                                                                                                                                                                                                                                                                                                                                            
6220J301781678V01318484       CAMACHO              IDELFONSO DE J.                                                                                                                                                                                                                                                                                                                                                                                                                                                  
6210J301781678V01765295       001010824575802000034560000000000202272010824500AUTORIZADO                                                                                                                                                                                                                                                                                                                                                                                                                            
6220J301781678V01765295       COLMENAREZ           ROMELIO A.                                                                                                                                                                                                                                                                                                                                                                                                                                                       
6210J301781678V01769938       001010824575002000034720000000000643322010824500AUTORIZADO                                                                                                                                                                                                                                                                                                                                                                                                                            
6220J301781678V01769938       LOPEZ                JOSE PASTOR                                                                                                                                                                                                                                                                                                                                                                                                                                                      
6210J301781678V02130876       001010824010102000726650000000000747322010824000AUTORIZADO                                                                                                                                                                                                                                                                                                                                                                                                                            
6220J301781678V02130876       SILVA                BERTHA                                                                                                                                                                                                                                                                                                                                                                                                                                                           
6210J301781678V02186056       001010824575502000037740000000001068102010824500AUTORIZADO                                                                                                                                                                                                                                                                                                                                                                                                                            
6220J301781678V02186056       ALVARADO             PEDRO GERARDO                                                                                                                                                                                                                                                                                                                                                                                                                                                    
6210J301781678V02189077       001010824575702000037900000000000375272010824500AUTORIZADO                                                                                                                                                                                                                                                                                                                                                                                                                            
6220J301781678V02189077       JIMENEZ              OBDULIA                                                                                                                                                                                                                                                                                                                                                                                                                                                          
6210J301781678V02198274       001010824575902000038980000000000449252010824500AUTORIZADO                                                                                                                                                                                                                                                                                                                                                                                                                            
6220J301781678V02198274       PINTO CHIRINOS       ALBERTO JOSE                                                                                                                                                                                                                                                                                                                                                                                                                                                     
6210J301781678V02198799       001010824575502000039360000000000321662010824500AUTORIZADO                                                                                                                                                                                                                                                                                                                                                                                                                            
6220J301781678V02198799       TOBOSO               PEDRO RAFAEL                                                                                                                                                                                                                                                                                                                                                                                                                                                     
6210J301781678V02272067       001010824575102000039950000000000538242010824500AUTORIZADO                                                                                                                                                                                                                                                                                                                                                                                                                            
6220J301781678V02272067       GODOY DE C.          MARIA DEL R.                                                                                                                                                                                                                                                                                                                                                                                                                                                     
6210J301781678V02380275       001010824575302000040530000000000563972010824500AUTORIZADO                                                                                                                                                                                                                                                                                                                                                                                                                            
6220J301781678V02380275       TORRES S.            CLARENCIO                                                                                                                                                                                                                                                                                                                                                                                                                                                        
6210J301781678V02384661       001010824575702000040960000000001132602010824500AUTORIZADO                                                                                                                                                                                                                                                                                                                                                                                                                            
6220J301781678V02384661       URRIOLA DE S.        LOURDES L.                                                                                                                                                                                                                                                                                                                                                                                                                                                       
6210J301781678V02533320       001010824575502000042310000000000292342010824500AUTORIZADO                                                                                                                                                                                                                                                                                                                                                                                                                            
6220J301781678V02533320       HERNANDEZ S.         ISMAEL H.                                                                                                                                                                                                                                                                                                                                                                                                                                                        
6210J301781678V02541142       001010824575502000373260000000000435312010824500AUTORIZADO                                                                                                                                                                                                                                                                                                                                                                                                                            
6220J301781678V02541142       TORRES               GUALBERTO                                                                                                                                                                                                                                                                                                                                                                                                                                                        
6210J301781678V02541439       001010824575102000044600000000000107222010824500AUTORIZADO                                                                                                                                                                                                                                                                                                                                                                                                                            
6220J301781678V02541439       SALCEDO A.           BENILDA F.                                                                                                                                                                                                                                                                                                                                                                                                                                                       
6210J301781678V02541709       001010824575802000045090000000001483672010824500AUTORIZADO                                                                                                                                                                                                                                                                                                                                                                                                                            
6220J301781678V02541709       QUINTERO A.          CARLOS E                                                                                                                                                                                                                                                                                                                                                                                                                                                         
6210J301781678V02543654       001010824575602000045920000000000208812010824500AUTORIZADO                                                                                                                                                                                                                                                                                                                                                                                                                            
6220J301781678V02543654       GIMENEZ A.           EMILIANO                                                                                                                                                                                                                                                                                                                                                                                                                                                         
6210J301781678V02543813       001010824575002000046060000000000340962010824500AUTORIZADO                                                                                                                                                                                                                                                                                                                                                                                                                            
6220J301781678V02543813       MARTINEZ        JOSE EUCLIDES                                                                                                                                                                                                                                                                                                                                                                                                                                                         
6210J301781678V02592064       001010824575102000047030000000000728312010824500AUTORIZADO                                                                                                                                                                                                                                                                                                                                                                                                                            
6220J301781678V02592064       DURAN                BERNABE                                                                                                                                                                                                                                                                                                                                                                                                                                                          
6210J301781678V02592966       001010824575202000047110000000000495562010824500AUTORIZADO                                                                                                                                                                                                                                                                                                                                                                                                                            
6220J301781678V02592966       ALVAREZ R.           GERARDO                                                                                                                                                                                                                                                                                                                                                                                                                                                          
6210J301781678V02596405       001010824575302000048000000000000235882010824500AUTORIZADO                                                                                                                                                                                                                                                                                                                                                                                                                            
6220J301781678V02596405       PEREZ                PEDRO PABLO                                                                                                                                                                                                                                                                                                                                                                                                                                                      
6210J301781678V02597854       001010824575502000048270000000000428882010824500AUTORIZADO                                                                                                                                                                                                                                                                                                                                                                                                                            
6220J301781678V02597854       FLORES               JULIAN ANTONIO                                                                                                                                                                                                                                                                                                                                                                                                                                                   
6210J301781678V02598733       001010824575802000048510000000000426792010824500AUTORIZADO                                                                                                                                                                                                                                                                                                                                                                                                                            
6220J301781678V02598733       RAMOS A.             ROBERTO ANTONIO                                                                                                                                                                                                                                                                                                                                                                                                                                                  
6210J301781678V02605164       001010824575902000049400000000000458902010824500AUTORIZADO                                                                                                                                                                                                                                                                                                                                                                                                                            
6220J301781678V02605164       MATHEUS P.           JOSE TOMAS                                                                                                                                                                                                                                                                                                                                                                                                                                                       
6210J301781678V02607322       001010824575202000049830000000000739632010824500AUTORIZADO                                                                                                                                                                                                                                                                                                                                                                                                                            
6220J301781678V02607322       YEPEZ                JESUS MARIA                                                                                                                                                                                                                                                                                                                                                                                                                                                      
6210J301781678V02608233       001010824575302000049910000000000590782010824500AUTORIZADO                                                                                                                                                                                                                                                                                                                                                                                                                            
6220J301781678V02608233       FLORES               RAFAEL SIMON                                                                                                                                                                                                                                                                                                                                                                                                                                                     
6210J301781678V02608304       001010824575402000560290000000000768052010824500AUTORIZADO                                                                                                                                                                                                                                                                                                                                                                                                                            
6220J301781678V02608304       MARQUEZ P.           CARMEN TERESA                                                                                                                                                                                                                                                                                                                                                                                                                                                    
6210J301781678V02608554       001010824575302000050250000000000661532010824500AUTORIZADO                                                                                                                                                                                                                                                                                                                                                                                                                            
6220J301781678V02608554       FLORES E.            MANUEL RAMON                                                                                                                                                                                                                                                                                                                                                                                                                                                     
6210J301781678V02684589       001010824575402000051140000000000268052010824500AUTORIZADO                                                                                                                                                                                                                                                                                                                                                                                                                            
6220J301781678V02684589       BERRIOS              JUAN BAUTISTA                                                                                                                                                                                                                                                                                                                                                                                                                                                    
6210J301781678V02741170       001010824575502000051220000000000519252010824500AUTORIZADO                                                                                                                                                                                                                                                                                                                                                                                                                            
6220J301781678V02741170       RODRIGUEZ            OSWALDO ANTONIO                                                                                                                                                                                                                                                                                                                                                                                                                                                  
6210J301781678V02910376       001010824010802000870770000000000835802010824000AUTORIZADO                                                                                                                                                                                                                                                                                                                                                                                                                            
6220J301781678V02910376       ANGULO               ANA TERESA                                                                                                                                                                                                                                                                                                                                                                                                                                                       
6210J301781678V02913809       001010824575302000053780000000000128662010824500AUTORIZADO                                                                                                                                                                                                                                                                                                                                                                                                                            
6220J301781678V02913809       MENDOZA DE M.        JOSEFA A.                                                                                                                                                                                                                                                                                                                                                                                                                                                        
6210J301781678V02915293       001010824575902000054080000000000600602010824500AUTORIZADO                                                                                                                                                                                                                                                                                                                                                                                                                            
6220J301781678V02915293       AZUAJE               ANA RAFAELA                                                                                                                                                                                                                                                                                                                                                                                                                                                      
6210J301781678V02915780       001010824575202000054400000000000243392010824500AUTORIZADO                                                                                                                                                                                                                                                                                                                                                                                                                            
6220J301781678V02915780       SUAREZ V.            MIGUEL ANGEL                                                                                                                                                                                                                                                                                                                                                                                                                                                     
6210J301781678V02916362       001010824575102000055050000000000258932010824500AUTORIZADO                                                                                                                                                                                                                                                                                                                                                                                                                            
6220J301781678V02916362       ARENAS               OCTAVIO                                                                                                                                                                                                                                                                                                                                                                                                                                                          
6210J301781678V02916467       001010824575102000055130000000000499642010824500AUTORIZADO                                                                                                                                                                                                                                                                                                                                                                                                                            
6220J301781678V02916467       ALVARADO DE C.       GUMERCINDA                                                                                                                                                                                                                                                                                                                                                                                                                                                       
6210J301781678V03080057       001010824575902000057500000000000420062010824500AUTORIZADO                                                                                                                                                                                                                                                                                                                                                                                                                            
6220J301781678V03080057       ALVAREZ P.           GUSTAVO A                                                                                                                                                                                                                                                                                                                                                                                                                                                        
6210J301781678V03081351       001010824575202000057930000000000343102010824500AUTORIZADO                                                                                                                                                                                                                                                                                                                                                                                                                            
6220J301781678V03081351       SEGURA               SILVIO RAFAEL                                                                                                                                                                                                                                                                                                                                                                                                                                                    
6210J301781678V03082505       001010824575102000058580000000000189322010824500AUTORIZADO                                                                                                                                                                                                                                                                                                                                                                                                                            
6220J301781678V03082505       RAMIREZ C.           VICTOR JOSE                                                                                                                                                                                                                                                                                                                                                                                                                                                      
6210J301781678V03083006       001010824575102000058660000000000760532010824500AUTORIZADO                                                                                                                                                                                                                                                                                                                                                                                                                            
6220J301781678V03083006       RODRIGUEZ            JESUS ESTEBAN                                                                                                                                                                                                                                                                                                                                                                                                                                                    
6210J301781678V03083457       001010824133302000172280000000000275552010824100AUTORIZADO                                                                                                                                                                                                                                                                                                                                                                                                                            
6220J301781678V03083457       TORRES               PABLO JOSE                                                                                                                                                                                                                                                                                                                                                                                                                                                       
6210J301781678V03083843       001010824575402000058900000000000552182010824500AUTORIZADO                                                                                                                                                                                                                                                                                                                                                                                                                            
6220J301781678V03083843       GOMEZ RAMOS          MARIA M.                                                                                                                                                                                                                                                                                                                                                                                                                                                         
6210J301781678V03084978       001010824575002000059200000000000659762010824500AUTORIZADO                                                                                                                                                                                                                                                                                                                                                                                                                            
6220J301781678V03084978       CASTILLO             JOSE DE LOS S.                                                                                                                                                                                                                                                                                                                                                                                                                                                   
6210J301781678V03085009       001010824575102000059470000000000187632010824500AUTORIZADO                                                                                                                                                                                                                                                                                                                                                                                                                            
6220J301781678V03085009       MONSALVE R.          FREDDY A                                                                                                                                                                                                                                                                                                                                                                                                                                                         
6210J301781678V03234299       001010824575902000061370000000000324722010824500AUTORIZADO                                                                                                                                                                                                                                                                                                                                                                                                                            
6220J301781678V03234299       MUJICA C.            CELESTINO                                                                                                                                                                                                                                                                                                                                                                                                                                                        
6210J301781678V03245420       001010824575102000061530000000000729092010824500AUTORIZADO                                                                                                                                                                                                                                                                                                                                                                                                                            
6220J301781678V03245420       PERDOMO G.           SANTELIX DAVID                                                                                                                                                                                                                                                                                                                                                                                                                                                   
6210J301781678V03314884       001010824575202000062500000000000788482010824500AUTORIZADO                                                                                                                                                                                                                                                                                                                                                                                                                            
6220J301781678V03314884       OSTA DE HURTADO      MARIA M.                                                                                                                                                                                                                                                                                                                                                                                                                                                         
6210J301781678V03315121       001010824575302000062690000000000399932010824500AUTORIZADO                                                                                                                                                                                                                                                                                                                                                                                                                            
6220J301781678V03315121       ESPINOZA CRESPO      CARMEN V.                                                                                                                                                                                                                                                                                                                                                                                                                                                        
6210J301781678V03315781       001010824575002000063070000000000045942010824500AUTORIZADO                                                                                                                                                                                                                                                                                                                                                                                                                            
6220J301781678V03315781       PENA PARRA           BERTA                                                                                                                                                                                                                                                                                                                                                                                                                                                            
6210J301781678V03317339       001010824575502000063660000000000902902010824500AUTORIZADO                                                                                                                                                                                                                                                                                                                                                                                                                            
6220J301781678V03317339       MONTERO              AGDIO FRANCISCO                                                                                                                                                                                                                                                                                                                                                                                                                                                  
6210J301781678V03318719       001010824575602000064550000000000126922010824500AUTORIZADO                                                                                                                                                                                                                                                                                                                                                                                                                            
6220J301781678V03318719       ECHEGARAY            MARIO SILVERIO                                                                                                                                                                                                                                                                                                                                                                                                                                                   
6210J301781678V03322128       001010824575002000065790000000000524112010824500AUTORIZADO                                                                                                                                                                                                                                                                                                                                                                                                                            
6220J301781678V03322128       PENA S.              EDGAR JOSE                                                                                                                                                                                                                                                                                                                                                                                                                                                       
6210J301781678V03322284       001010824575102000065950000000000404542010824500AUTORIZADO                                                                                                                                                                                                                                                                                                                                                                                                                            
6220J301781678V03322284       HERNANDEZ            NARCISO A.                                                                                                                                                                                                                                                                                                                                                                                                                                                       
6210J301781678V03324110       001010824338102000136470000000001624612010824300AUTORIZADO                                                                                                                                                                                                                                                                                                                                                                                                                            
6220J301781678V03324110       MAVARE               VICTOR MANUEL                                                                                                                                                                                                                                                                                                                                                                                                                                                    
6210J301781678V03528540       001010824575402000069430000000000309442010824500AUTORIZADO                                                                                                                                                                                                                                                                                                                                                                                                                            
6220J301781678V03528540       GARCIA A.            VICENTE PAUL                                                                                                                                                                                                                                                                                                                                                                                                                                                     
6210J301781678V03533360       001010824575702000070010000000000117032010824500AUTORIZADO                                                                                                                                                                                                                                                                                                                                                                                                                            
6220J301781678V03533360       PINA ROMERO          JOSE F.                                                                                                                                                                                                                                                                                                                                                                                                                                                          
6210J301781678V03535838       001010824575302000070790000000001150052010824500AUTORIZADO                                                                                                                                                                                                                                                                                                                                                                                                                            
6220J301781678V03535838       OROPEZA              OMALDO RAFAEL                                                                                                                                                                                                                                                                                                                                                                                                                                                    
6210J301781678V03538837       001010824575302000072300000000000971902010824500AUTORIZADO                                                                                                                                                                                                                                                                                                                                                                                                                            
6220J301781678V03538837       GOMEZ TIMAURE        JUAN EMILIO                                                                                                                                                                                                                                                                                                                                                                                                                                                      
6210J301781678V03539352       001010824575602000072650000000000246602010824500AUTORIZADO                                                                                                                                                                                                                                                                                                                                                                                                                            
6220J301781678V03539352       TONA DE MENDOZA      LIGIA                                                                                                                                                                                                                                                                                                                                                                                                                                                            
6210J301781678V03593839       001010824575902000074510000000000203722010824500AUTORIZADO                                                                                                                                                                                                                                                                                                                                                                                                                            
6220J301781678V03593839       GONZALEZ SIMANCAS    ELIO                                                                                                                                                                                                                                                                                                                                                                                                                                                             
6210J301781678V03710064       001010824575202000075750000000001044682010824500AUTORIZADO                                                                                                                                                                                                                                                                                                                                                                                                                            
6220J301781678V03710064       RIVERO               FREDDY ANTONIO                                                                                                                                                                                                                                                                                                                                                                                                                                                   
6210J301781678V03759377       001010824575202000076560000000000472532010824500AUTORIZADO                                                                                                                                                                                                                                                                                                                                                                                                                            
6220J301781678V03759377       COLMENAREZ EVIES     LUIS A.                                                                                                                                                                                                                                                                                                                                                                                                                                                          
6210J301781678V03784066       001010824575602000076990000000000917622010824500AUTORIZADO                                                                                                                                                                                                                                                                                                                                                                                                                            
6220J301781678V03784066       GOMEZ Z.             ARACELIS DEL C.                                                                                                                                                                                                                                                                                                                                                                                                                                                  
6210J301781678V03784441       001010824575002000077020000000001240292010824500AUTORIZADO                                                                                                                                                                                                                                                                                                                                                                                                                            
6220J301781678V03784441       ANGULO A.            JOSE CRISTOBAL                                                                                                                                                                                                                                                                                                                                                                                                                                                   
6210J301781678V03785251       001010824575102000077100000000000161422010824500AUTORIZADO                                                                                                                                                                                                                                                                                                                                                                                                                            
6220J301781678V03785251       GIL R.               JUANA ANTONIA                                                                                                                                                                                                                                                                                                                                                                                                                                                    
6210J301781678V03830110       001010824575402000077530000000000085782010824500AUTORIZADO                                                                                                                                                                                                                                                                                                                                                                                                                            
6220J301781678V03830110       LOPEZ R.             FELIX JOSE                                                                                                                                                                                                                                                                                                                                                                                                                                                       
6210J301781678V03855577       001010824575302000078260000000000482492010824500AUTORIZADO                                                                                                                                                                                                                                                                                                                                                                                                                            
6220J301781678V03855577       MATHEUS DE MENDOZA   MARIA                                                                                                                                                                                                                                                                                                                                                                                                                                                            
6210J301781678V03857004       001010824575902000078850000000000229452010824500AUTORIZADO                                                                                                                                                                                                                                                                                                                                                                                                                            
6220J301781678V03857004       TORREALBA P.         UVENCIA J.                                                                                                                                                                                                                                                                                                                                                                                                                                                       
6210J301781678V03857220       001010824575002000078930000000000528992010824500AUTORIZADO                                                                                                                                                                                                                                                                                                                                                                                                                            
6220J301781678V03857220       MARIN S.             JULIO JOSE                                                                                                                                                                                                                                                                                                                                                                                                                                                       
6210J301781678V03857667       001010824575602000079310000000000807482010824500AUTORIZADO                                                                                                                                                                                                                                                                                                                                                                                                                            
6220J301781678V03857667       GIL                  PABLO                                                                                                                                                                                                                                                                                                                                                                                                                                                            
6210J301781678V03857878       001010824575802000079580000000000500002010824500AUTORIZADO                                                                                                                                                                                                                                                                                                                                                                                                                            
6220J301781678V03857878       BELLO P.             CRISTOBAL                                                                                                                                                                                                                                                                                                                                                                                                                                                        
6210J301781678V03858323       001010824575002000079740000000001056272010824500AUTORIZADO                                                                                                                                                                                                                                                                                                                                                                                                                            
6220J301781678V03858323       PUERTA DE ESCALONA   YUDITH                                                                                                                                                                                                                                                                                                                                                                                                                                                           
6210J301781678V03858856       001010824575102000080160000000000148952010824500AUTORIZADO                                                                                                                                                                                                                                                                                                                                                                                                                            
6220J301781678V03858856       PEREZ H.             LIVIO GERMAN                                                                                                                                                                                                                                                                                                                                                                                                                                                     
6210J301781678V03875055       001010824575802000082530000000000255182010824500AUTORIZADO                                                                                                                                                                                                                                                                                                                                                                                                                            
6220J301781678V03875055       LARA LINAREZ         BIANEIS C                                                                                                                                                                                                                                                                                                                                                                                                                                                        
6210J301781678V03877925       001010824575102000082960000000000633672010824500AUTORIZADO                                                                                                                                                                                                                                                                                                                                                                                                                            
6220J301781678V03877925       PACHECO              FELICIANO                                                                                                                                                                                                                                                                                                                                                                                                                                                        
6210J301781678V03878006       001010824575602000083180000000000864552010824500AUTORIZADO                                                                                                                                                                                                                                                                                                                                                                                                                            
6220J301781678V03878006       BULLONES  V.         ABEL PASTOR                                                                                                                                                                                                                                                                                                                                                                                                                                                      
6210J301781678V03963688       001010824575902000084230000000000853822010824500AUTORIZADO                                                                                                                                                                                                                                                                                                                                                                                                                            
6220J301781678V03963688       GALLARDO             SILVERIO ANTONIO                                                                                                                                                                                                                                                                                                                                                                                                                                                 
6210J301781678V03969513       001010824575902000085040000000000145822010824500AUTORIZADO                                                                                                                                                                                                                                                                                                                                                                                                                            
6220J301781678V03969513       MARTINEZ E.          ADOLFO A                                                                                                                                                                                                                                                                                                                                                                                                                                                         
6210J301781678V04064149       001010824575102000086010000000000933142010824500AUTORIZADO                                                                                                                                                                                                                                                                                                                                                                                                                            
6220J301781678V04064149       GARCIA G.            CRISTOBAL                                                                                                                                                                                                                                                                                                                                                                                                                                                        
6210J301781678V04065177       001010824575802000086870000000000214442010824500AUTORIZADO                                                                                                                                                                                                                                                                                                                                                                                                                            
6220J301781678V04065177       CALLES               PETRA MARIA                                                                                                                                                                                                                                                                                                                                                                                                                                                      
6210J301781678V04065584       001010824575402000087250000000000183372010824500AUTORIZADO                                                                                                                                                                                                                                                                                                                                                                                                                            
6220J301781678V04065584       VIRGUEZ G.           PAUSIDES                                                                                                                                                                                                                                                                                                                                                                                                                                                         
6210J301781678V04065648       001010824575602000087410000000000632182010824500AUTORIZADO                                                                                                                                                                                                                                                                                                                                                                                                                            
6220J301781678V04065648       RODRIGUEZ C.         MELQUIADES S                                                                                                                                                                                                                                                                                                                                                                                                                                                     
6210J301781678V04066245       001010824575102000087920000000000496852010824500AUTORIZADO                                                                                                                                                                                                                                                                                                                                                                                                                            
6220J301781678V04066245       CASTILLO             JOSE RAMON                                                                                                                                                                                                                                                                                                                                                                                                                                                       
6210J301781678V04067795       001010824575602000089030000000000765632010824500AUTORIZADO                                                                                                                                                                                                                                                                                                                                                                                                                            
6220J301781678V04067795       ALVAREZ HERNANDEZ    PASTOR                                                                                                                                                                                                                                                                                                                                                                                                                                                           
6210J301781678V04071074       001010824575502000090390000000000039432010824500AUTORIZADO                                                                                                                                                                                                                                                                                                                                                                                                                            
6220J301781678V04071074       ECHEVERRIA M.        OSCAR G.                                                                                                                                                                                                                                                                                                                                                                                                                                                         
6210J301781678V04071241       001010824575802000090630000000000827992010824500AUTORIZADO                                                                                                                                                                                                                                                                                                                                                                                                                            
6220J301781678V04071241       SANCHEZ              MARLENE PASTORA                                                                                                                                                                                                                                                                                                                                                                                                                                                  
6210J301781678V04107436       001010824575902000091520000000001041302010824500AUTORIZADO                                                                                                                                                                                                                                                                                                                                                                                                                            
6220J301781678V04107436       QUERALEZ PENA        RAFAEL A.                                                                                                                                                                                                                                                                                                                                                                                                                                                        
6210J301781678V04191539       001010824575102000091870000000000305622010824500AUTORIZADO                                                                                                                                                                                                                                                                                                                                                                                                                            
6220J301781678V04191539       CARMONA              JUAN DE JESUS                                                                                                                                                                                                                                                                                                                                                                                                                                                    
