6110J301781678CAPPOUCLA                          201611022016110401082445190100023187VEF000110000ASEMANADE.RECCASCAPPOUCLA                                                                                                                                                                                                                                                                                                                                                                                          
6210J301781678V11949766       001010824575802000395660000000000372672010824501CGE0001 FONDOS INSUFICIENTES                                                                                                                                                                                                                                                                                                                                                                                                          
6220J301781678V11949766       PENA S.              DARWIN J.                                                                                                                                                                                                                                                                                                                                                                                                                                                        
6910J301781678000000000037267000000010000000004                                                                                                                                                                                                                                                                                                                                                                                                                                                                     
